{
  "contractName": "Transaction",
  "abi": [
    {
      "anonymous": false,
      "inputs": [
        {
          "indexed": true,
          "internalType": "address",
          "name": "from",
          "type": "address"
        },
        {
          "indexed": true,
          "internalType": "address",
          "name": "to",
          "type": "address"
        },
        {
          "indexed": false,
          "internalType": "uint256",
          "name": "amount",
          "type": "uint256"
        },
        {
          "indexed": false,
          "internalType": "uint256",
          "name": "timestamp",
          "type": "uint256"
        }
      ],
      "name": "TransactionExecuted",
      "type": "event"
    },
    {
      "anonymous": false,
      "inputs": [
        {
          "indexed": true,
          "internalType": "address",
          "name": "from",
          "type": "address"
        },
        {
          "indexed": true,
          "internalType": "address",
          "name": "to",
          "type": "address"
        },
        {
          "indexed": false,
          "internalType": "uint256",
          "name": "amount",
          "type": "uint256"
        },
        {
          "indexed": false,
          "internalType": "string",
          "name": "reason",
          "type": "string"
        }
      ],
      "name": "TransactionFailed",
      "type": "event"
    },
    {
      "inputs": [
        {
          "internalType": "address",
          "name": "",
          "type": "address"
        }
      ],
      "name": "balances",
      "outputs": [
        {
          "internalType": "uint256",
          "name": "",
          "type": "uint256"
        }
      ],
      "stateMutability": "view",
      "type": "function",
      "constant": true
    },
    {
      "inputs": [
        {
          "internalType": "uint256",
          "name": "",
          "type": "uint256"
        }
      ],
      "name": "transactions",
      "outputs": [
        {
          "internalType": "address",
          "name": "from",
          "type": "address"
        },
        {
          "internalType": "address",
          "name": "to",
          "type": "address"
        },
        {
          "internalType": "uint256",
          "name": "amount",
          "type": "uint256"
        },
        {
          "internalType": "uint256",
          "name": "timestamp",
          "type": "uint256"
        },
        {
          "internalType": "bool",
          "name": "completed",
          "type": "bool"
        }
      ],
      "stateMutability": "view",
      "type": "function",
      "constant": true
    },
    {
      "stateMutability": "payable",
      "type": "receive",
      "payable": true
    },
    {
      "inputs": [
        {
          "internalType": "address payable",
          "name": "_to",
          "type": "address"
        }
      ],
      "name": "sendTransaction",
      "outputs": [],
      "stateMutability": "payable",
      "type": "function",
      "payable": true
    },
    {
      "inputs": [],
      "name": "getTransactions",
      "outputs": [
        {
          "components": [
            {
              "internalType": "address",
              "name": "from",
              "type": "address"
            },
            {
              "internalType": "address",
              "name": "to",
              "type": "address"
            },
            {
              "internalType": "uint256",
              "name": "amount",
              "type": "uint256"
            },
            {
              "internalType": "uint256",
              "name": "timestamp",
              "type": "uint256"
            },
            {
              "internalType": "bool",
              "name": "completed",
              "type": "bool"
            }
          ],
          "internalType": "struct Transaction.TransactionDetails[]",
          "name": "",
          "type": "tuple[]"
        }
      ],
      "stateMutability": "view",
      "type": "function",
      "constant": true
    },
    {
      "inputs": [],
      "name": "getTransactionCount",
      "outputs": [
        {
          "internalType": "uint256",
          "name": "",
          "type": "uint256"
        }
      ],
      "stateMutability": "view",
      "type": "function",
      "constant": true
    },
    {
      "inputs": [],
      "name": "getContractBalance",
      "outputs": [
        {
          "internalType": "uint256",
          "name": "",
          "type": "uint256"
        }
      ],
      "stateMutability": "view",
      "type": "function",
      "constant": true
    },
    {
      "inputs": [
        {
          "internalType": "address",
          "name": "_address",
          "type": "address"
        }
      ],
      "name": "isValidAddress",
      "outputs": [
        {
          "internalType": "bool",
          "name": "",
          "type": "bool"
        }
      ],
      "stateMutability": "pure",
      "type": "function",
      "constant": true
    }
  ],
  "bytecode": "0x608060405234801561001057600080fd5b50610f30806100206000396000f3fe6080604052600436106100735760003560e01c80632e7700f01161004e5780632e7700f01461016b5780636f9fb98a1461019657806383920e90146101c15780639ace38c2146101ec576100d0565b80623f07fa146100d557806327e235e3146101125780632bd123fe1461014f576100d0565b366100d05734600160003373ffffffffffffffffffffffffffffffffffffffff1673ffffffffffffffffffffffffffffffffffffffff16815260200190815260200160002060008282546100c79190610dd6565b92505081905550005b600080fd5b3480156100e157600080fd5b506100fc60048036038101906100f791906108dd565b61022d565b6040516101099190610c74565b60405180910390f35b34801561011e57600080fd5b50610139600480360381019061013491906108dd565b610266565b6040516101469190610d0f565b60405180910390f35b61016960048036038101906101649190610906565b61027e565b005b34801561017757600080fd5b506101806106bd565b60405161018d9190610d0f565b60405180910390f35b3480156101a257600080fd5b506101ab6106c9565b6040516101b89190610d0f565b60405180910390f35b3480156101cd57600080fd5b506101d66106d1565b6040516101e39190610c52565b60405180910390f35b3480156101f857600080fd5b50610213600480360381019061020e919061092f565b61080b565b604051610224959493929190610bff565b60405180910390f35b60008073ffffffffffffffffffffffffffffffffffffffff168273ffffffffffffffffffffffffffffffffffffffff1614159050919050565b60016020528060005260406000206000915090505481565b600073ffffffffffffffffffffffffffffffffffffffff168173ffffffffffffffffffffffffffffffffffffffff1614156102ee576040517f08c379a00000000000000000000000000000000000000000000000000000000081526004016102e590610caf565b60405180910390fd5b60003411610331576040517f08c379a000000000000000000000000000000000000000000000000000000000815260040161032890610c8f565b60405180910390fd5b3373ffffffffffffffffffffffffffffffffffffffff168173ffffffffffffffffffffffffffffffffffffffff1614156103a0576040517f08c379a000000000000000000000000000000000000000000000000000000000815260040161039790610cef565b60405180910390fd5b60008173ffffffffffffffffffffffffffffffffffffffff16346040516103c690610bea565b60006040518083038185875af1925050503d8060008114610403576040519150601f19603f3d011682016040523d82523d6000602084013e610408565b606091505b5050905080156106195760006040518060a001604052803373ffffffffffffffffffffffffffffffffffffffff1681526020018473ffffffffffffffffffffffffffffffffffffffff16815260200134815260200142815260200160011515815250908060018154018082558091505060019003906000526020600020906005020160009091909190915060008201518160000160006101000a81548173ffffffffffffffffffffffffffffffffffffffff021916908373ffffffffffffffffffffffffffffffffffffffff16021790555060208201518160010160006101000a81548173ffffffffffffffffffffffffffffffffffffffff021916908373ffffffffffffffffffffffffffffffffffffffff160217905550604082015181600201556060820151816003015560808201518160040160006101000a81548160ff021916908315150217905550505034600160003373ffffffffffffffffffffffffffffffffffffffff1673ffffffffffffffffffffffffffffffffffffffff16815260200190815260200160002060008282546105a69190610dd6565b925050819055508173ffffffffffffffffffffffffffffffffffffffff163373ffffffffffffffffffffffffffffffffffffffff167fdabe2b2f7b14097679980dc88076a94f87a7db8a70bc6faa9bc8ca9aef49d7e0344260405161060c929190610d58565b60405180910390a36106b9565b8173ffffffffffffffffffffffffffffffffffffffff163373ffffffffffffffffffffffffffffffffffffffff167fac2f532662cc1b810ca66b2316876daf9984fbd59b5fc8d19c3f1f18bf96d5aa346040516106769190610d2a565b60405180910390a36040517f08c379a00000000000000000000000000000000000000000000000000000000081526004016106b090610ccf565b60405180910390fd5b5050565b60008080549050905090565b600047905090565b60606000805480602002602001604051908101604052809291908181526020016000905b8282101561080257838290600052602060002090600502016040518060a00160405290816000820160009054906101000a900473ffffffffffffffffffffffffffffffffffffffff1673ffffffffffffffffffffffffffffffffffffffff1673ffffffffffffffffffffffffffffffffffffffff1681526020016001820160009054906101000a900473ffffffffffffffffffffffffffffffffffffffff1673ffffffffffffffffffffffffffffffffffffffff1673ffffffffffffffffffffffffffffffffffffffff16815260200160028201548152602001600382015481526020016004820160009054906101000a900460ff161515151581525050815260200190600101906106f5565b50505050905090565b6000818154811061081b57600080fd5b90600052602060002090600502016000915090508060000160009054906101000a900473ffffffffffffffffffffffffffffffffffffffff16908060010160009054906101000a900473ffffffffffffffffffffffffffffffffffffffff16908060020154908060030154908060040160009054906101000a900460ff16905085565b6000813590506108ad81610eb5565b92915050565b6000813590506108c281610ecc565b92915050565b6000813590506108d781610ee3565b92915050565b6000602082840312156108ef57600080fd5b60006108fd8482850161089e565b91505092915050565b60006020828403121561091857600080fd5b6000610926848285016108b3565b91505092915050565b60006020828403121561094157600080fd5b600061094f848285016108c8565b91505092915050565b60006109648383610b64565b60a08301905092915050565b61097981610e2c565b82525050565b61098881610e2c565b82525050565b600061099982610d91565b6109a38185610da9565b93506109ae83610d81565b8060005b838110156109df5781516109c68882610958565b97506109d183610d9c565b9250506001810190506109b2565b5085935050505092915050565b6109f581610e50565b82525050565b610a0481610e50565b82525050565b6000610a17601d83610dc5565b91507f416d6f756e74206d7573742062652067726561746572207468616e20300000006000830152602082019050919050565b6000610a57601983610dc5565b91507f496e76616c696420726563697069656e742061646472657373000000000000006000830152602082019050919050565b6000610a97601283610dc5565b91507f4661696c656420746f2073656e642045544800000000000000000000000000006000830152602082019050919050565b6000610ad7601283610dc5565b91507f5472616e73616374696f6e206661696c656400000000000000000000000000006000830152602082019050919050565b6000610b17600083610dba565b9150600082019050919050565b6000610b31601783610dc5565b91507f43616e6e6f742073656e6420746f20796f757273656c660000000000000000006000830152602082019050919050565b60a082016000820151610b7a6000850182610970565b506020820151610b8d6020850182610970565b506040820151610ba06040850182610bcc565b506060820151610bb36060850182610bcc565b506080820151610bc660808501826109ec565b50505050565b610bd581610e7c565b82525050565b610be481610e7c565b82525050565b6000610bf582610b0a565b9150819050919050565b600060a082019050610c14600083018861097f565b610c21602083018761097f565b610c2e6040830186610bdb565b610c3b6060830185610bdb565b610c4860808301846109fb565b9695505050505050565b60006020820190508181036000830152610c6c818461098e565b905092915050565b6000602082019050610c8960008301846109fb565b92915050565b60006020820190508181036000830152610ca881610a0a565b9050919050565b60006020820190508181036000830152610cc881610a4a565b9050919050565b60006020820190508181036000830152610ce881610a8a565b9050919050565b60006020820190508181036000830152610d0881610b24565b9050919050565b6000602082019050610d246000830184610bdb565b92915050565b6000604082019050610d3f6000830184610bdb565b8181036020830152610d5081610aca565b905092915050565b6000604082019050610d6d6000830185610bdb565b610d7a6020830184610bdb565b9392505050565b6000819050602082019050919050565b600081519050919050565b6000602082019050919050565b600082825260208201905092915050565b600081905092915050565b600082825260208201905092915050565b6000610de182610e7c565b9150610dec83610e7c565b9250827fffffffffffffffffffffffffffffffffffffffffffffffffffffffffffffffff03821115610e2157610e20610e86565b5b828201905092915050565b6000610e3782610e5c565b9050919050565b6000610e4982610e5c565b9050919050565b60008115159050919050565b600073ffffffffffffffffffffffffffffffffffffffff82169050919050565b6000819050919050565b7f4e487b7100000000000000000000000000000000000000000000000000000000600052601160045260246000fd5b610ebe81610e2c565b8114610ec957600080fd5b50565b610ed581610e3e565b8114610ee057600080fd5b50565b610eec81610e7c565b8114610ef757600080fd5b5056fea2646970667358221220c294fa649fc9149a184b3118b10976c785fb6b2cb260580b14e4c00f9df6361864736f6c63430008000033",
  "immutableReferences": {},
  "source": "// SPDX-License-Identifier: MIT\r\npragma solidity ^0.8.0;\r\n\r\ncontract Transaction {\r\n    // Events\r\n    event TransactionExecuted(\r\n        address indexed from,\r\n        address indexed to,\r\n        uint256 amount,\r\n        uint256 timestamp\r\n    );\r\n    \r\n    event TransactionFailed(\r\n        address indexed from,\r\n        address indexed to,\r\n        uint256 amount,\r\n        string reason\r\n    );\r\n\r\n    // Struct to store transaction details\r\n    struct TransactionDetails {\r\n        address from;\r\n        address to;\r\n        uint256 amount;\r\n        uint256 timestamp;\r\n        bool completed;\r\n    }\r\n\r\n    // Array to store all transactions\r\n    TransactionDetails[] public transactions;\r\n    \r\n    // Mapping to track user balances\r\n    mapping(address => uint256) public balances;\r\n\r\n    // Function to send ETH to another address\r\n    function sendTransaction(address payable _to) public payable {\r\n        require(_to != address(0), \"Invalid recipient address\");\r\n        require(msg.value > 0, \"Amount must be greater than 0\");\r\n        require(_to != msg.sender, \"Cannot send to yourself\");\r\n\r\n        // Transfer the amount\r\n        (bool sent, ) = _to.call{value: msg.value}(\"\");\r\n        \r\n        if (sent) {\r\n            // Store transaction details\r\n            transactions.push(TransactionDetails({\r\n                from: msg.sender,\r\n                to: _to,\r\n                amount: msg.value,\r\n                timestamp: block.timestamp,\r\n                completed: true\r\n            }));\r\n\r\n            // Update balances\r\n            balances[msg.sender] += msg.value;\r\n\r\n            // Emit success event\r\n            emit TransactionExecuted(\r\n                msg.sender,\r\n                _to,\r\n                msg.value,\r\n                block.timestamp\r\n            );\r\n        } else {\r\n            // Emit failure event and revert\r\n            emit TransactionFailed(\r\n                msg.sender,\r\n                _to,\r\n                msg.value,\r\n                \"Transaction failed\"\r\n            );\r\n            revert(\"Failed to send ETH\");\r\n        }\r\n    }\r\n\r\n    // Function to get all transactions for an address\r\n    function getTransactions() public view returns (TransactionDetails[] memory) {\r\n        return transactions;\r\n    }\r\n\r\n    // Function to get user's transaction count\r\n    function getTransactionCount() public view returns (uint256) {\r\n        return transactions.length;\r\n    }\r\n\r\n    // Function to get contract balance\r\n    function getContractBalance() public view returns (uint256) {\r\n        return address(this).balance;\r\n    }\r\n\r\n    // Function to receive ETH\r\n    receive() external payable {\r\n        balances[msg.sender] += msg.value;\r\n    }\r\n\r\n    // Function to check if an address exists\r\n    function isValidAddress(address _address) public pure returns (bool) {\r\n        return _address != address(0);\r\n    }\r\n}",
  "sourcePath": "C:\\Users\\mohit\\OneDrive\\Desktop\\crypto-upi-express\\Backend\\contracts\\Transaction.sol",
  "compiler": {
    "name": "solc",
    "version": "0.8.0+commit.c7dfd78e.Emscripten.clang"
  },
  "schemaVersion": "3.4.16",
  "updatedAt": "2025-03-27T06:17:59.537Z",
  "networkType": "ethereum",
  "devdoc": {
    "kind": "dev",
    "methods": {},
    "version": 1
  },
  "userdoc": {
    "kind": "user",
    "methods": {},
    "version": 1
  }
}